{
  "_format": "hh-sol-artifact-1",
  "contractName": "BasedGuestbook",
  "sourceName": "contracts/BasedGuestbook.sol",
  "abi": [
    {
      "anonymous": false,
      "inputs": [
        {
          "indexed": true,
          "internalType": "address",
          "name": "author",
          "type": "address"
        },
        {
          "indexed": false,
          "internalType": "string",
          "name": "message",
          "type": "string"
        },
        {
          "indexed": false,
          "internalType": "uint256",
          "name": "timestamp",
          "type": "uint256"
        }
      ],
      "name": "EntrySigned",
      "type": "event"
    },
    {
      "inputs": [],
      "name": "entriesCount",
      "outputs": [
        {
          "internalType": "uint256",
          "name": "",
          "type": "uint256"
        }
      ],
      "stateMutability": "view",
      "type": "function"
    },
    {
      "inputs": [
        {
          "internalType": "uint256",
          "name": "limit",
          "type": "uint256"
        }
      ],
      "name": "getRecentEntries",
      "outputs": [
        {
          "components": [
            {
              "internalType": "address",
              "name": "author",
              "type": "address"
            },
            {
              "internalType": "string",
              "name": "message",
              "type": "string"
            },
            {
              "internalType": "uint256",
              "name": "timestamp",
              "type": "uint256"
            }
          ],
          "internalType": "struct BasedGuestbook.Entry[]",
          "name": "",
          "type": "tuple[]"
        }
      ],
      "stateMutability": "view",
      "type": "function"
    },
    {
      "inputs": [
        {
          "internalType": "string",
          "name": "message",
          "type": "string"
        }
      ],
      "name": "sign",
      "outputs": [],
      "stateMutability": "nonpayable",
      "type": "function"
    }
  ],
  "bytecode": "0x6080604052348015600f57600080fd5b506107478061001f6000396000f3fe608060405234801561001057600080fd5b50600436106100415760003560e01c806379d6348d14610046578063ab4ccf011461005b578063c2b0ad4b14610071575b600080fd5b6100596100543660046103d1565b610091565b005b6000546040519081526020015b60405180910390f35b61008461007f366004610445565b610211565b604051610068919061045e565b8181806100d85760405162461bcd60e51b815260206004820152601060248201526f13595cdcd859d9481c995c5d5a5c995960821b60448201526064015b60405180910390fd5b60b481111561011c5760405162461bcd60e51b815260206004820152601060248201526f4d65737361676520746f6f206c6f6e6760801b60448201526064016100cf565b60006040518060600160405280336001600160a01b0316815260200186868080601f01602080910402602001604051908101604052809392919081815260200183838082843760009201829052509385525050426020938401525083546001808201865594825290829020835160039092020180546001600160a01b0319166001600160a01b039092169190911781559082015191929091908201906101c290826105c1565b506040918201516002909101555133907f31b1a42d06795679ec7b56394de98ae5e3b68d3c196f69308a2a35aa4c4e32bb9061020390879087904290610680565b60405180910390a250505050565b600080546060918184106102255781610227565b835b905060008167ffffffffffffffff81111561024457610244610522565b6040519080825280602002602001820160405280156102a257816020015b61028f604051806060016040528060006001600160a01b0316815260200160608152602001600081525090565b8152602001906001900390816102625790505b50905060005b828110156103c8576000816102bd85876106cf565b6102c791906106e8565b815481106102d7576102d76106fb565b6000918252602091829020604080516060810190915260039092020180546001600160a01b03168252600181018054929391929184019161031790610538565b80601f016020809104026020016040519081016040528092919081815260200182805461034390610538565b80156103905780601f1061036557610100808354040283529160200191610390565b820191906000526020600020905b81548152906001019060200180831161037357829003601f168201915b505050505081526020016002820154815250508282815181106103b5576103b56106fb565b60209081029190910101526001016102a8565b50949350505050565b600080602083850312156103e457600080fd5b823567ffffffffffffffff8111156103fb57600080fd5b8301601f8101851361040c57600080fd5b803567ffffffffffffffff81111561042357600080fd5b85602082840101111561043557600080fd5b6020919091019590945092505050565b60006020828403121561045757600080fd5b5035919050565b6000602082016020835280845180835260408501915060408160051b86010192506020860160005b8281101561051657603f19878603018452815160018060a01b038151168652602081015160606020880152805180606089015260005b818110156104d957602081840181015160808b84010152016104bc565b5060006080828a010152604083015160408901526080601f19601f8301168901019750505050602082019150602084019350600181019050610486565b50929695505050505050565b634e487b7160e01b600052604160045260246000fd5b600181811c9082168061054c57607f821691505b60208210810361056c57634e487b7160e01b600052602260045260246000fd5b50919050565b601f8211156105bc57806000526020600020601f840160051c810160208510156105995750805b601f840160051c820191505b818110156105b957600081556001016105a5565b50505b505050565b815167ffffffffffffffff8111156105db576105db610522565b6105ef816105e98454610538565b84610572565b6020601f821160018114610623576000831561060b5750848201515b600019600385901b1c1916600184901b1784556105b9565b600084815260208120601f198516915b828110156106535787850151825560209485019460019092019101610633565b50848210156106715786840151600019600387901b60f8161c191681555b50505050600190811b01905550565b604081528260408201528284606083013760006060848301015260006060601f19601f8601168301019050826020830152949350505050565b634e487b7160e01b600052601160045260246000fd5b818103818111156106e2576106e26106b9565b92915050565b808201808211156106e2576106e26106b9565b634e487b7160e01b600052603260045260246000fdfea264697066735822122031cdcd128ab9ffd0e6c218144b817c44c784dd7fb5502cb7990ea5c2635525ab64736f6c634300081c0033",
  "linkReferences": {},
  "deployedLinkReferences": {}
}